{
  "contractName": "ClientsContract",
  "abi": [
    {
      "inputs": [
        {
          "internalType": "uint256",
          "name": "",
          "type": "uint256"
        }
      ],
      "name": "clients",
      "outputs": [
        {
          "internalType": "uint256",
          "name": "clientId",
          "type": "uint256"
        },
        {
          "internalType": "string",
          "name": "name",
          "type": "string"
        },
        {
          "internalType": "string",
          "name": "walletAddress",
          "type": "string"
        },
        {
          "internalType": "address",
          "name": "owner",
          "type": "address"
        }
      ],
      "stateMutability": "view",
      "type": "function",
      "constant": true
    },
    {
      "inputs": [],
      "name": "nextclientId",
      "outputs": [
        {
          "internalType": "uint256",
          "name": "",
          "type": "uint256"
        }
      ],
      "stateMutability": "view",
      "type": "function",
      "constant": true
    },
    {
      "inputs": [
        {
          "internalType": "string",
          "name": "_name",
          "type": "string"
        },
        {
          "internalType": "string",
          "name": "_walletAddress",
          "type": "string"
        }
      ],
      "name": "createClient",
      "outputs": [],
      "stateMutability": "nonpayable",
      "type": "function"
    },
    {
      "inputs": [
        {
          "internalType": "uint256",
          "name": "clientId",
          "type": "uint256"
        }
      ],
      "name": "getClient",
      "outputs": [
        {
          "internalType": "string",
          "name": "name",
          "type": "string"
        },
        {
          "internalType": "string",
          "name": "walletAddress",
          "type": "string"
        },
        {
          "internalType": "address",
          "name": "owner",
          "type": "address"
        }
      ],
      "stateMutability": "view",
      "type": "function",
      "constant": true
    }
  ],
  "bytecode": "0x60806040526001805534801561001457600080fd5b50610be6806100246000396000f3fe608060405234801561001057600080fd5b506004361061004c5760003560e01c80632df8b73614610051578063c1cf6b461461006d578063d0068f801461008b578063f88af21d146100bd575b600080fd5b61006b600480360381019061006691906107d6565b6100f0565b005b6100756101fd565b6040516100829190610867565b60405180910390f35b6100a560048036038101906100a091906108ae565b610203565b6040516100b4939291906109a4565b60405180910390f35b6100d760048036038101906100d291906108ae565b6103ca565b6040516100e794939291906109e9565b60405180910390f35b6000604051806080016040528060015481526020018481526020018381526020013373ffffffffffffffffffffffffffffffffffffffff16815250908060018154018082558091505060019003906000526020600020906004020160009091909190915060008201518160000155602082015181600101908051906020019061017a9291906105d9565b5060408201518160020190805190602001906101979291906105d9565b5060608201518160030160006101000a81548173ffffffffffffffffffffffffffffffffffffffff021916908373ffffffffffffffffffffffffffffffffffffffff1602179055505050600160008154809291906101f490610a6b565b91905055505050565b60015481565b6060806000806102128561053a565b90506000818154811061022857610227610ab4565b5b90600052602060002090600402016001016000828154811061024d5761024c610ab4565b5b90600052602060002090600402016002016000838154811061027257610271610ab4565b5b906000526020600020906004020160030160009054906101000a900473ffffffffffffffffffffffffffffffffffffffff168280546102b090610b12565b80601f01602080910402602001604051908101604052809291908181526020018280546102dc90610b12565b80156103295780601f106102fe57610100808354040283529160200191610329565b820191906000526020600020905b81548152906001019060200180831161030c57829003601f168201915b5050505050925081805461033c90610b12565b80601f016020809104026020016040519081016040528092919081815260200182805461036890610b12565b80156103b55780601f1061038a576101008083540402835291602001916103b5565b820191906000526020600020905b81548152906001019060200180831161039857829003601f168201915b50505050509150935093509350509193909250565b600081815481106103da57600080fd5b906000526020600020906004020160009150905080600001549080600101805461040390610b12565b80601f016020809104026020016040519081016040528092919081815260200182805461042f90610b12565b801561047c5780601f106104515761010080835404028352916020019161047c565b820191906000526020600020905b81548152906001019060200180831161045f57829003601f168201915b50505050509080600201805461049190610b12565b80601f01602080910402602001604051908101604052809291908181526020018280546104bd90610b12565b801561050a5780601f106104df5761010080835404028352916020019161050a565b820191906000526020600020905b8154815290600101906020018083116104ed57829003601f168201915b5050505050908060030160009054906101000a900473ffffffffffffffffffffffffffffffffffffffff16905084565b600080600090505b60008054905081101561059857826000828154811061056457610563610ab4565b5b906000526020600020906004020160000154141561058557809150506105d4565b808061059090610a6b565b915050610542565b506040517f08c379a00000000000000000000000000000000000000000000000000000000081526004016105cb90610b90565b60405180910390fd5b919050565b8280546105e590610b12565b90600052602060002090601f016020900481019282610607576000855561064e565b82601f1061062057805160ff191683800117855561064e565b8280016001018555821561064e579182015b8281111561064d578251825591602001919060010190610632565b5b50905061065b919061065f565b5090565b5b80821115610678576000816000905550600101610660565b5090565b6000604051905090565b600080fd5b600080fd5b600080fd5b600080fd5b6000601f19601f8301169050919050565b7f4e487b7100000000000000000000000000000000000000000000000000000000600052604160045260246000fd5b6106e38261069a565b810181811067ffffffffffffffff82111715610702576107016106ab565b5b80604052505050565b600061071561067c565b905061072182826106da565b919050565b600067ffffffffffffffff821115610741576107406106ab565b5b61074a8261069a565b9050602081019050919050565b82818337600083830152505050565b600061077961077484610726565b61070b565b90508281526020810184848401111561079557610794610695565b5b6107a0848285610757565b509392505050565b600082601f8301126107bd576107bc610690565b5b81356107cd848260208601610766565b91505092915050565b600080604083850312156107ed576107ec610686565b5b600083013567ffffffffffffffff81111561080b5761080a61068b565b5b610817858286016107a8565b925050602083013567ffffffffffffffff8111156108385761083761068b565b5b610844858286016107a8565b9150509250929050565b6000819050919050565b6108618161084e565b82525050565b600060208201905061087c6000830184610858565b92915050565b61088b8161084e565b811461089657600080fd5b50565b6000813590506108a881610882565b92915050565b6000602082840312156108c4576108c3610686565b5b60006108d284828501610899565b91505092915050565b600081519050919050565b600082825260208201905092915050565b60005b838110156109155780820151818401526020810190506108fa565b83811115610924576000848401525b50505050565b6000610935826108db565b61093f81856108e6565b935061094f8185602086016108f7565b6109588161069a565b840191505092915050565b600073ffffffffffffffffffffffffffffffffffffffff82169050919050565b600061098e82610963565b9050919050565b61099e81610983565b82525050565b600060608201905081810360008301526109be818661092a565b905081810360208301526109d2818561092a565b90506109e16040830184610995565b949350505050565b60006080820190506109fe6000830187610858565b8181036020830152610a10818661092a565b90508181036040830152610a24818561092a565b9050610a336060830184610995565b95945050505050565b7f4e487b7100000000000000000000000000000000000000000000000000000000600052601160045260246000fd5b6000610a768261084e565b91507fffffffffffffffffffffffffffffffffffffffffffffffffffffffffffffffff821415610aa957610aa8610a3c565b5b600182019050919050565b7f4e487b7100000000000000000000000000000000000000000000000000000000600052603260045260246000fd5b7f4e487b7100000000000000000000000000000000000000000000000000000000600052602260045260246000fd5b60006002820490506001821680610b2a57607f821691505b60208210811415610b3e57610b3d610ae3565b5b50919050565b7f436c69656e7420646f6573206e6f742065786973742100000000000000000000600082015250565b6000610b7a6016836108e6565b9150610b8582610b44565b602082019050919050565b60006020820190508181036000830152610ba981610b6d565b905091905056fea2646970667358221220be5003b87164944f659bc1a478b8c31292b167dcd59a3acba86438a58af8054464736f6c634300080a0033",
  "immutableReferences": {},
  "source": "pragma solidity ^0.8.0;\n\ncontract ClientsContract {\n\nstruct Clients { \n      uint clientId;\n      string name;\n      string walletAddress;\n      address owner; \n   }\n\nClients[] public clients;\nuint public nextclientId = 1;\n\nfunction createClient(string memory _name, string memory _walletAddress) public {\n  clients.push(Clients(nextclientId, _name, _walletAddress, msg.sender));\n  nextclientId++;\n}\n\nfunction getClient(uint clientId) public view returns (string memory name, string memory walletAddress,address owner) {\n    uint wantedId = find(clientId);\n    return(clients[wantedId].name, clients[wantedId].walletAddress, clients[wantedId].owner);\n}\n\nfunction find(uint id) view internal returns(uint) {\n    for(uint i = 0; i < clients.length; i++) {\n      if(clients[i].clientId == id) {\n        return i;\n      }\n    }\n    revert('Client does not exist!');\n  }\n\n}",
  "sourcePath": "/Users/techno/Blockchain_latest/digitrace/contracts/ClientsContract.sol",
  "compiler": {
    "name": "solc",
    "version": "0.8.10+commit.fc410830.Emscripten.clang"
  },
  "schemaVersion": "3.4.4",
  "updatedAt": "2022-01-23T11:12:04.464Z",
  "networkType": "ethereum",
  "devdoc": {
    "kind": "dev",
    "methods": {},
    "version": 1
  },
  "userdoc": {
    "kind": "user",
    "methods": {},
    "version": 1
  }
}